:020000040800F2
:100000000000032009310008152D0008232D0008E9
:10001000292D00082F2D0008352D000800000000B4
:100020000000000000000000000000003B2D000860
:10003000492D000800000000572D0008652D00081C
:100040005931000859310008593100085931000868
:100050005931000859310008593100085931000858
:100060005931000859310008593100085931000848
:10007000712D000859310008852D000859310008FC
:100080005931000859310008593100085931000828
:100090005931000859310008593100085931000818
:1000A0005931000859310008593100085931000808
:1000B00059310008593100085931000859310008F8
:1000C00059310008593100085931000859310008E8
:1000D000593100085931000859310008992D00089C
:1000E00059310008593100085931000859310008C8
:1000F00059310008593100085931000859310008B8
:1001000059310008593100085931000859310008A7
:100110005931000859310008593100085931000897
:100120005931000859310008593100085931000887
:100130005931000859310008593100085931000877
:100140005931000859310008593100085931000867
:100150005931000859310008593100085931000857
:100160005931000859310008593100085931000847
:1001700059310008593100085931000800000000C9
:100180005931000859310008593100085931000827
:100190005931000859310008593100085931000817
:0C01A0005931000859310008593100089D
:1001AC0010B5054C237833B9044B13B10448AFF3A5
:1001BC0000800123237010BD3C04002000000000CF
:1001CC002833000808B5034B1BB103490348AFF3B0
:1001DC00008008BD00000000400400202833000807
:1001EC0053B94AB9002908BF00281CBF4FF0FF3192
:1001FC004FF0FF3000F074B9ADF1080C6DE904CE8E
:10020C0000F006F8DDF804E0DDE9022304B07047E5
:10021C002DE9F047089E04468846002B40F0858067
:10022C008A42154648D9B2FA82F24AB1C2F1200785
:10023C0001FA02F320FA07F7954047EA03089440C5
:10024C004FEA154E230CB8FBFEF71FFA85FC0EFB8C
:10025C00178843EA084307FB0CF1994209D9EB18BC
:10026C0007F1FF3080F0E380994240F2E080023FDA
:10027C002B445B1AA4B2B3FBFEF00EFB103344EA22
:10028C00034400FB0CFCA44509D92C1900F1FF33E5
:10029C0080F0CB80A44540F2C88002382C4440EA60
:1002AC000740A4EB0C0400271EB1D4400023C6E980
:1002BC0000433946BDE8F087002A53D0B2FA82F2E7
:1002CC00002A40F0B680491B4FEA154E1FFA85F8FC
:1002DC000127B1FBFEFC230C0EFB1C1143EA01436E
:1002EC0008FB0CF1994207D9EB180CF1FF3002D244
:1002FC00994200F2EC808446591AA3B2B1FBFEF08D
:10030C000EFB101443EA044408FB00F8A04507D97F
:10031C002C1900F1FF3302D2A04500F2DC80184604
:10032C00A4EB080440EA0C40BEE78B4208D9002E2F
:10033C0078D00027C6E9000138463946BDE8F08779
:10034C00B3FA83F77FB98B4202D3824200F2BD80AD
:10035C00841A61EB030301209846002EA9D0C6E94C
:10036C000048A6E7FFDEC7F12005BB4022FA05FCDA
:10037C004CEA030C01FA07F420FA05F821FA05F30C
:10038C004FEA1C4E48EA0404B3FBFEF9210C0EFBA9
:10039C0019331FFA8CF841EA034309FB08FA9A4512
:1003AC0002FA07F200FA07F10BD91CEB030309F16F
:1003BC00FF3080F088809A4540F28580A9F10209CF
:1003CC006344A3EB0A03A4B2B3FBFEF00EFB1033A1
:1003DC0044EA034400FB08F8A04508D91CEB0404CC
:1003EC0000F1FF336BD2A04569D90238644440EA6E
:1003FC000940A4EB0804A0FB02894C45C6464B46B9
:10040C0054D351D0002E69D0B1EB0E0264EB03042F
:10041C0004FA05F522FA07F3FC401D43C6E9005423
:10042C00002746E73746304643E7184637E7074686
:10043C001FE7C2F1200320FA03F7954001FA02F0FE
:10044C0021FA03F34FEA154E3843010CB3FBFEF7C8
:10045C001FFA85F80EFB173341EA034107FB08F33B
:10046C008B4204FA02F407D9691807F1FF3C28D231
:10047C008B4226D9023F2944CB1A81B2B3FBFEF042
:10048C000EFB103341EA034100FB08F38B4207D902
:10049C00691800F1FF3C10D28B420ED90238294466
:1004AC00C91A40EA074714E74145ABD2B8EB020E34
:1004BC0069EB0C0201381346A4E76046F0E71846D6
:1004CC0095E76746D8E781467BE7384645E7ACF1C8
:1004DC00020C2B4410E702382C4421E73746E8E69F
:1004EC00704700BF844641EA000313F003036DD14B
:1004FC00403A41D351F8043B40F8043B51F8043BDB
:10050C0040F8043B51F8043B40F8043B51F8043BE1
:10051C0040F8043B51F8043B40F8043B51F8043BD1
:10052C0040F8043B51F8043B40F8043B51F8043BC1
:10053C0040F8043B51F8043B40F8043B51F8043BB1
:10054C0040F8043B51F8043B40F8043B51F8043BA1
:10055C0040F8043B51F8043B40F8043B51F8043B91
:10056C0040F8043B51F8043B40F8043B51F8043B81
:10057C0040F8043B403ABDD2303211D351F8043B21
:10058C0040F8043B51F8043B40F8043B51F8043B61
:10059C0040F8043B51F8043B40F8043B103AEDD2D0
:1005AC000C3205D351F8043B40F8043B043AF9D221
:1005BC00043208D0D2071CBF11F8013B00F8013BF4
:1005CC0001D30B8803806046704700BF082A13D301
:1005DC008B078DD010F003038AD0C3F10403D21A19
:1005EC00DB071CBF11F8013B00F8013B80D331F84D
:1005FC00023B20F8023B7BE7043AD9D3013A11F8CD
:10060C00013B00F8013BF9D20B7803704B78437037
:10061C008B7883706046704780B500AF0E4B1B68BB
:10062C000D4A43F4007313600B4B1B680A4A43F4E6
:10063C0080631360084B1B68074A43F48073136094
:10064C00032000F02BF9002000F008F802F07CFAEF
:10065C000023184680BD00BF003C024080B582B02C
:10066C0000AF7860124B1A68124B1B7819464FF486
:10067C007A73B3FBF1F3B2FBF3F3184600F043F9D2
:10068C000346002B01D001230EE07B680F2B0AD808
:10069C00002279684FF0FF3000F00BF9064A7B68B6
:1006AC001360002300E0012318460837BD4680BDC7
:1006BC0008000020040000200000002080B400AFDF
:1006CC00064B1B781A46064B1B681344044A1360EE
:1006DC0000BFBD465DF8047B704700BF04000020DE
:1006EC007C04002080B400AF034B1B681846BD4649
:1006FC005DF8047B704700BF7C04002080B485B09B
:10070C0000AF78607B6803F00703FB600C4BDB6881
:10071C00BB60BA684FF6FF031340BB60FB681A025C
:10072C00BB68134343F0BF6343F40033BB60044A1C
:10073C00BB68D36000BF1437BD465DF8047B7047BF
:10074C0000ED00E080B400AF044BDB681B0A03F043
:10075C0007031846BD465DF8047B704700ED00E0CA
:10076C0080B483B000AF0346FB7197F90730002BC0
:10077C000BDBFB7903F01F02074997F907305B0984
:10078C00012000FA02F241F8232000BF0C37BD46CD
:10079C005DF8047B704700BF00E100E080B483B0DB
:1007AC0000AF03463960FB7197F90730002B0ADB69
:1007BC003B68DAB20C4997F907301201D2B20B44FC
:1007CC0083F800230AE03B68DAB20849FB7903F0AE
:1007DC000F03043B1201D2B20B441A7600BF0C3744
:1007EC00BD465DF8047B704700E100E000ED00E0E1
:1007FC0080B489B000AFF860B9607A60FB6803F030
:10080C000703FB61FB69C3F10703042B28BF042317
:10081C00BB61FB690433062B02D9FB69033B00E087
:10082C0000237B614FF0FF32BB6902FA03F3DA431A
:10083C00BB681A407B699A404FF0FF317B6901FA23
:10084C0003F3D9437B680B40134318462437BD464A
:10085C005DF8047B7047000080B582B000AF786013
:10086C007B68013BB3F1807F01D301230FE00A4A7F
:10087C007B68013B53600F214FF0FF30FFF78EFF79
:10088C00054B00229A60044B07221A60002318467D
:10089C000837BD4680BD00BF10E000E080B582B0D7
:1008AC0000AF78607868FFF729FF00BF0837BD46B6
:1008BC0080BD80B586B000AF0346B9607A60FB732B
:1008CC0000237B61FFF73EFF78617A68B96878692D
:1008DC00FFF78EFF024697F90F3011461846FFF7C7
:1008EC005DFF00BF1837BD4680BD80B582B000AF3C
:1008FC000346FB7197F907301846FFF731FF00BF2D
:10090C000837BD4680BD80B582B000AF786078688E
:10091C00FFF7A2FF034618460837BD4680BD00000E
:10092C0080B586B000AF786000237B61FFF7DAFEFC
:10093C0038617B68002B01D1012399E07B68002290
:10094C0083F834207B68022283F835207B681B688F
:10095C001A687B681B6822F001021A600FE0FFF72F
:10096C00C1FE02463B69D31A052B08D97B682022AD
:10097C005A657B68032283F83520032378E07B6873
:10098C001B681B6803F00103002BE8D17B681B6814
:10099C001B687B617A69384B13407B617B685A68B2
:1009AC007B689B681A437B68DB681A437B681B690E
:1009BC001A437B685B691A437B689B691A437B68A3
:1009CC00DB691A437B681B6A13437A6913437B61A7
:1009DC007B685B6A042B07D17B68DA6A7B681B6BCC
:1009EC0013437A6913437B617B681B687A691A60CD
:1009FC007B681B685B697B617B6923F007037B6108
:100A0C007B685B6A7A6913437B617B685B6A042B46
:100A1C0017D17B689B6A7A6913437B617B68DB6ABD
:100A2C00002B0ED0786800F099FA0346002B08D002
:100A3C007B6840225A657B68012283F835200123AC
:100A4C0016E07B681B687A695A61786800F050FA86
:100A5C000346FB607B68DB6D3F229A40FB689A6023
:100A6C007B6800225A657B68012283F835200023BD
:100A7C0018461837BD4680BD3F8010F080B586B053
:100A8C0000AFF860B9607A603B600023FB75FB68CF
:100A9C009B6D3B61FB6893F83430012B01D1022331
:100AAC0048E0FB68012283F83420FB6893F835306A
:100ABC00DBB2012B37D1FB68022283F83520FB68AF
:100ACC0000225A653B687A68B968F86800F0E2F968
:100ADC00FB68DB6D3F229A403B699A60FB681B68A0
:100AEC001A68FB681B6842F016021A60FB681B68E8
:100AFC005A69FB681B6842F080025A61FB681B6CE8
:100B0C00002B07D0FB681B681A68FB681B6842F057
:100B1C0008021A60FB681B681A68FB681B6842F0C5
:100B2C0001021A6005E0FB68002283F834200223DE
:100B3C00FB75FB7D18461837BD4680BD80B483B06D
:100B4C0000AF78607B6893F83530DBB2022B04D0B1
:100B5C007B6880225A6501230CE07B68052283F8B0
:100B6C0035207B681B681A687B681B6822F00102C1
:100B7C001A60002318460C37BD465DF8047B70479D
:100B8C0080B586B000AF78600023BB60924B1B68C9
:100B9C00924AA2FB03239B0A7B617B689B6D3B61A2
:100BAC003B691B68FB607B68DB6D08229A40FB6825
:100BBC001340002B1AD07B681B681B6803F00403DE
:100BCC00002B13D07B681B681A687B681B6822F0AB
:100BDC0004021A607B68DB6D08229A403B699A60BC
:100BEC007B685B6D43F001027B685A657B68DB6D4B
:100BFC0001229A40FB681340002B12D07B681B68C3
:100C0C005B6903F08003002B0BD07B68DB6D01224A
:100C1C009A403B699A607B685B6D43F002027B688B
:100C2C005A657B68DB6D04229A40FB681340002BED
:100C3C0012D07B681B681B6803F00203002B0BD0DF
:100C4C007B68DB6D04229A403B699A607B685B6D24
:100C5C0043F004027B685A657B68DB6D10229A4076
:100C6C00FB681340002B43D07B681B681B6803F0A8
:100C7C000803002B3CD07B68DB6D10229A403B694B
:100C8C009A607B681B681B6803F48023002B18D0C8
:100C9C007B681B681B6803F40023002B08D17B685E
:100CAC001B6C002B24D07B681B6C786898471FE06A
:100CBC007B689B6C002B1BD07B689B6C786898477F
:100CCC0016E07B681B681B6803F48073002B07D14C
:100CDC007B681B681A687B681B6822F008021A6024
:100CEC007B681B6C002B03D07B681B6C7868984767
:100CFC007B68DB6D20229A40FB681340002B00F0D0
:100D0C008E807B681B681B6803F01003002B00F0BF
:100D1C0086807B68DB6D20229A403B699A607B68F9
:100D2C0093F83530DBB2052B36D17B681B681A681B
:100D3C007B681B6822F016021A607B681B685A6974
:100D4C007B681B6822F080025A617B681B6C002B4D
:100D5C0003D17B689B6C002B07D07B681B681A68DF
:100D6C007B681B6822F008021A607B68DB6D3F22EF
:100D7C009A403B699A607B68002283F834207B6838
:100D8C00012283F835207B681B6D002B7DD07B689E
:100D9C001B6D7868984778E07B681B681B6803F4C8
:100DAC008023002B1CD07B681B681B6803F400237A
:100DBC00002B08D17B685B6C002B30D07B685B6CA4
:100DCC00786898472BE07B68DB6B002B27D07B681F
:100DDC00DB6B7868984722E008000020B5814E1B39
:100DEC007B681B681B6803F48073002B0FD17B6836
:100DFC001B681A687B681B6822F010021A607B68FB
:100E0C00002283F834207B68012283F835207B682C
:100E1C00DB6B002B03D07B68DB6B786898477B68B7
:100E2C005B6D002B32D07B685B6D03F00103002BF4
:100E3C0022D07B68052283F835207B681B681A68F2
:100E4C007B681B6822F001021A60BB680133BB602F
:100E5C007A699A4207D37B681B681B6803F001030D
:100E6C00002BF2D100E000BF7B68002283F8342015
:100E7C007B68012283F835207B68DB6C002B05D066
:100E8C007B68DB6C7868984700E000BF1837BD467C
:100E9C0080BD00BF80B485B000AFF860B9607A60E7
:100EAC003B60FB681B681A68FB681B6822F4802295
:100EBC001A60FB681B683A685A60FB689B68402B99
:100ECC0008D1FB681B687A689A60FB681B68BA6873
:100EDC00DA6007E0FB681B68BA689A60FB681B68FD
:100EEC007A68DA6000BF1437BD465DF8047B704742
:100EFC0080B485B000AF78607B681B68DBB2103BB8
:100F0C00144AA2FB03231B09FB60134AFB6813441E
:100F1C001B781A467B68DA65FB68032B09D97B685A
:100F2C001B6823F47F7323F003031A1D7B689A65F7
:100F3C0007E07B681B6823F47F7323F003037A6854
:100F4C0093657B689B6D18461437BD465DF8047B32
:100F5C00704700BFABAAAAAA4033000880B485B082
:100F6C0000AF78600023FB737B689B6ABB607B6877
:100F7C009B69002B1FD1BB68032B56D801A252F8DA
:100F8C0023F000BFA10F0008B30F0008A10F000849
:100F9C00371000087B68DB6A03F08073002B46D0A7
:100FAC000123FB7343E07B68DB6AB3F1C07F40D164
:100FBC000123FB733DE07B689B69B3F5005F21D196
:100FCC00BB68032B37D801A252F823F0E90F0008B5
:100FDC00EF0F0008E90F0008011000080123FB7354
:100FEC0030E07B68DB6A03F08073002B25D0012393
:100FFC00FB7322E07B68DB6AB3F1C07F1FD1012356
:10100C00FB731CE0BB68022B03D9BB68032B03D01A
:10101C0018E00123FB7315E07B68DB6A03F0807337
:10102C00002B0ED00123FB730BE000BF0AE000BFC6
:10103C0008E000BF06E000BF04E000BF02E000BF14
:10104C0000E000BFFB7B18461437BD465DF8047BFF
:10105C00704700BF80B489B000AF7860396000235E
:10106C007B6100233B610023BB610023FB6177E1C3
:10107C000122FB6902FA03F37B613B681B687A6906
:10108C0013403B613A697B699A4240F066813B6848
:10109C005B68022B03D03B685B68122B23D1FB6986
:1010AC00DA087B68083253F82230BB61FB6903F025
:1010BC0007039B000F2202FA03F3DB43BA691340C8
:1010CC00BB613B681A69FB6903F007039B0002FADA
:1010DC0003F3BA691343BB61FB69DA087B68083216
:1010EC00B96943F822107B681B68BB61FB695B0024
:1010FC00032202FA03F3DB43BA691340BB613B687A
:10110C005B6803F00302FB695B0002FA03F3BA6944
:10111C001343BB617B68BA691A603B685B68012B3F
:10112C000BD03B685B68022B07D03B685B68112BCC
:10113C0003D03B685B68122B30D17B689B68BB612A
:10114C00FB695B00032202FA03F3DB43BA69134029
:10115C00BB613B68DA68FB695B0002FA03F3BA69AE
:10116C001343BB617B68BA699A607B685B68BB613F
:10117C000122FB6902FA03F3DB43BA691340BB613A
:10118C003B685B681B0903F00102FB6902FA03F37D
:10119C00BA691343BB617B68BA695A607B68DB68C8
:1011AC00BB61FB695B00032202FA03F3DB43BA6900
:1011BC001340BB613B689A68FB695B0002FA03F35E
:1011CC00BA691343BB617B68BA69DA603B685B68D8
:1011DC0003F08053002B00F0C0800023FB60654BB4
:1011EC005B6C644A43F480435364624B5B6C03F462
:1011FC008043FB60FB68604AFB699B08023352F832
:10120C002330BB61FB6903F003039B000F2202FA3E
:10121C0003F3DB43BA691340BB617B68574A9342C3
:10122C0037D07B68564A934231D07B68554A9342FB
:10123C002BD07B68544A934225D07B68534A934207
:10124C001FD07B68524A934219D07B68514A934213
:10125C0013D07B68504A93420DD07B684F4A93421F
:10126C0007D07B684E4A934201D1092312E00A232E
:10127C0010E008230EE007230CE006230AE0052308
:10128C0008E0042306E0032304E0022302E0012328
:10129C0000E00023FA6902F0030292009340BA695D
:1012AC001343BB613449FB699B080233BA6941F8AB
:1012BC0023203C4B1B68BB613B69DB43BA69134081
:1012CC00BB613B685B6803F48033002B03D0BA69C5
:1012DC003B691343BB61334ABB691360314B5B6899
:1012EC00BB613B69DB43BA691340BB613B685B681C
:1012FC0003F40033002B03D0BA693B691343BB6181
:10130C00284ABB695360274B9B68BB613B69DB4335
:10131C00BA691340BB613B685B6803F48013002B14
:10132C0003D0BA693B691343BB611E4ABB69936026
:10133C001C4BDB68BB613B69DB43BA691340BB6187
:10134C003B685B6803F40013002B03D0BA693B695C
:10135C001343BB61134ABB69D360FB690133FB6167
:10136C00FB690F2B7FF684AE00BF2437BD465DF8BA
:10137C00047B7047003802400038014000000240F6
:10138C000004024000080240000C02400010024021
:10139C000014024000180240001C024000200240D1
:1013AC0000240240003C014080B582B000AF002315
:1013BC007B6000233B60204B1B6C1F4A43F0805327
:1013CC0013641D4B1B6C03F080533B603B681B4B41
:1013DC0001221A60FFF786F9786009E0FFF782F9BD
:1013EC0002467B68D31AB3F57A7F01D903231FE039
:1013FC00134B5B6803F48033B3F5803FEED1114B94
:10140C0001221A60FFF76EF9786009E0FFF76AF9BC
:10141C0002467B68D31AB3F57A7F01D9032307E020
:10142C00074B5B6803F40033B3F5003FEED10023A8
:10143C0018460837BD4680BD0038024040000E42B9
:10144C000070004044000E4280B586B000AF78605A
:10145C007B68002B01D101232DE27B681B6803F014
:10146C000103002B75D0A34B9B6803F00C03042BDA
:10147C000CD0A04B9B6803F00C03082B12D19D4B96
:10148C005B6803F48003B3F5800F0BD1994B1B6899
:10149C0003F40033002B5BD07B685B68002B57D1C7
:1014AC00012308E27B685B68B3F5803F06D1914B62
:1014BC001B68904A43F4803313601DE07B685B68C3
:1014CC00B3F5A02F0CD18B4B1B688A4A43F48023B5
:1014DC001360884B1B68874A43F4803313600BE01E
:1014EC00844B1B68834A23F480331360814B1B6845
:1014FC00804A23F4802313607B685B68002B13D035
:10150C00FFF7F0F8386108E0FFF7ECF802463B69AA
:10151C00D31A642B01D90323CDE1764B1B6803F45A
:10152C000033002BF0D014E0FFF7DCF8386108E052
:10153C00FFF7D8F802463B69D31A642B01D9032371
:10154C00B9E16C4B1B6803F40033002BF0D100E0C5
:10155C0000BF7B681B6803F00203002B63D0654B54
:10156C009B6803F00C03002B0BD0624B9B6803F0C1
:10157C000C03082B1CD15F4B5B6803F48003002B1E
:10158C0016D15C4B1B6803F00203002B05D07B6863
:10159C00DB68012B01D001238DE1564B1B6823F036
:1015AC00F8027B681B69DB00524913430B603AE07D
:1015BC007B68DB68002B20D04F4B01221A60FFF7B1
:1015CC0091F8386108E0FFF78DF802463B69D31AB1
:1015DC00022B01D903236EE1464B1B6803F0020377
:1015EC00002BF0D0434B1B6823F0F8027B681B697F
:1015FC00DB00404913430B6015E03F4B00221A609F
:10160C00FFF770F8386108E0FFF76CF802463B69A9
:10161C00D31A022B01D903234DE1364B1B6803F07F
:10162C000203002BF0D17B681B6803F00803002B2E
:10163C0030D07B685B69002B16D0304B01221A60CE
:10164C00FFF750F8386108E0FFF74CF802463B69A9
:10165C00D31A022B01D903232DE1264B5B6F03F028
:10166C000203002BF0D015E0244B00221A60FFF788
:10167C0039F8386108E0FFF735F802463B69D31AB0
:10168C00022B01D9032316E11A4B5B6F03F0020303
:10169C00002BF0D17B681B6803F00403002B00F0D7
:1016AC00A0800023FB75134B1B6C03F08053002BA5
:1016BC000FD10023FB600F4B1B6C0E4A43F0805381
:1016CC0013640C4B1B6C03F08053FB60FB68012311
:1016DC00FB750B4B1B6803F48073002B21D1084B5B
:1016EC001B68074A43F480731360FEF7FBFF3861F5
:1016FC0011E000BF0038024000004742800E474214
:10170C0000700040FEF7EEFF02463B69D31A022B35
:10171C0001D90323CFE06A4B1B6803F48073002BC1
:10172C00F0D07B689B68012B06D1664B1B6F654A1A
:10173C0043F0010313671CE07B689B68052B0CD1FD
:10174C00604B1B6F5F4A43F0040313675D4B1B6FC9
:10175C005C4A43F0010313670BE05A4B1B6F594A69
:10176C0023F001031367574B1B6F564A23F00403F6
:10177C0013677B689B68002B15D0FEF7B3FF3861AD
:10178C000AE0FEF7AFFF02463B69D31A41F28832FA
:10179C00934201D903238EE04A4B1B6F03F00203E3
:1017AC00002BEED014E0FEF79DFF38610AE0FEF747
:1017BC0099FF02463B69D31A41F28832934201D910
:1017CC00032378E03F4B1B6F03F00203002BEED199
:1017DC00FB7D012B05D13B4B1B6C3A4A23F080530C
:1017EC0013647B689B69002B64D0364B9B6803F0B9
:1017FC000C03082B5CD07B689B69022B41D1324BCC
:10180C0000221A60FEF76EFF386108E0FEF76AFFEF
:10181C0002463B69D31A022B01D903234BE0294B17
:10182C001B6803F00073002BF0D17B68DA697B68CE
:10183C001B6A1A437B685B6A9B011A437B689B6A31
:10184C005B08013B1B041A437B68DB6A1B061D49C2
:10185C0013434B601C4B01221A60FEF743FF3861A7
:10186C0008E0FEF73FFF02463B69D31A022B01D971
:10187C00032320E0134B1B6803F00073002BF0D004
:10188C0018E0114B00221A60FEF72CFF386108E0BB
:10189C00FEF728FF02463B69D31A022B01D903231A
:1018AC0009E0084B1B6803F00073002BF0D101E03A
:1018BC00012300E0002318461837BD4680BD00BF49
:1018CC0000700040003802406000474280B584B090
:1018DC0000AF786039607B68002B01D10123CAE02E
:1018EC00674B1B6803F00F033A689A420CD9644BA0
:1018FC003A68D2B21A70624B1B6803F00F033A6855
:10190C009A4201D00123B6E07B681B6803F0020306
:10191C00002B20D07B681B6803F00403002B05D040
:10192C00584B9B68574A43F4E05393607B681B68A1
:10193C0003F00803002B05D0524B9B68514A43F42B
:10194C00604393604F4B9B6823F0F0027B689B686D
:10195C004C4913438B607B681B6803F00103002B1D
:10196C0044D07B685B68012B07D1464B1B6803F4A2
:10197C000033002B19D101237DE07B685B68022BBF
:10198C0003D07B685B68032B07D13E4B1B6803F0CD
:10199C000073002B09D101236DE03A4B1B6803F057
:1019AC000203002B01D1012365E0364B9B6823F029
:1019BC0003027B685B68334913438B60FEF792FE2E
:1019CC00F8600AE0FEF78EFE0246FB68D31A41F27D
:1019DC008832934201D903234DE02A4B9B6803F0D4
:1019EC000C027B685B689B009A42EBD1244B1B6812
:1019FC0003F00F033A689A420CD2214B3A68D2B2E8
:101A0C001A701F4B1B6803F00F033A689A4201D0FF
:101A1C00012330E07B681B6803F00403002B08D023
:101A2C00184B9B6823F4E0527B68DB681549134321
:101A3C008B607B681B6803F00803002B09D0114BEB
:101A4C009B6823F460427B681B69DB000D491343E0
:101A5C008B6000F01DF801460A4B9B681B0903F0D4
:101A6C000F03094AD35C21FA03F3084A13600020E0
:101A7C00FEF7F4FD002318461037BD4680BD00BFAD
:101A8C00003C0240003802404833000808000020A7
:101A9C002DE9F04385B000AF00237B600023FB6091
:101AAC0000233B600023BB60644B9B6803F00C037A
:101ABC00042B07D0082B08D0002B40F0B680604BCD
:101ACC00BB60B5E05F4BBB60B2E05C4B5B6803F0A6
:101ADC003F037B60594B5B6803F48003002B4CD0B5
:101AEC00564B5B689B094FF0000440F2FF114FF01E
:101AFC00000203EA010804EA020941464A464FF093
:101B0C0000034FF00004540144EAD1644B01194620
:101B1C002246B1EB080162EB09024FF000034FF0D3
:101B2C000004940144EA91648B015B1A64EB020497
:101B3C004FF000014FF00002E20042EA5372D9006C
:101B4C000B46144613EB080344EB09044FF0000159
:101B5C004FF00002620242EAD35259020B4614467D
:101B6C00184621467B684FF000041A462346FEF7C0
:101B7C0037FB03460C46FB6049E0304B5B689B0926
:101B8C004FF0000440F2FF114FF0000203EA010590
:101B9C0004EA0206294632464FF000034FF00004D7
:101BAC00540144EAD1644B0119462246491B62EBAD
:101BBC0006024FF000034FF00004940144EA9164D4
:101BCC008B015B1A64EB02044FF000014FF0000232
:101BDC00E20042EA5372D9000B4614465B1946EBFD
:101BEC0004044FF000014FF00002A20242EA9352AB
:101BFC0099020B461446184621467B684FF00004A8
:101C0C001A462346FEF7ECFA03460C46FB600B4BD8
:101C1C005B681B0C03F0030301335B003B60FA6849
:101C2C003B68B2FBF3F3BB6002E0054BBB6000BF4B
:101C3C00BB6818461437BD46BDE8F0830038024037
:101C4C000024F40000127A0080B400AF034B1B6830
:101C5C001846BD465DF8047B704700BF08000020A5
:101C6C0080B500AFFFF7F0FF0146054B9B689B0A60
:101C7C0003F00703034AD35C21FA03F3184680BD33
:101C8C00003802405833000880B500AFFFF7DCFF86
:101C9C000146054B9B685B0B03F00703034AD35CBF
:101CAC0021FA03F3184680BD00380240583300086F
:101CBC0080B582B000AF78607B68002B01D1012326
:101CCC003FE07B6893F83930DBB2002B06D17B68A0
:101CDC00002283F83820786800F05EFF7B682422AD
:101CEC0083F839207B681B68DA687B681B6822F4F0
:101CFC000052DA60786800F029FC7B681B681A696E
:101D0C007B681B6822F490421A617B681B685A69D5
:101D1C007B681B6822F02A025A617B681B68DA68B0
:101D2C007B681B6842F40052DA607B680022DA633D
:101D3C007B68202283F839207B68202283F83A20A4
:101D4C00002318460837BD4680BD000080B586B01C
:101D5C0000AFF860B9601346FB80FB6893F839302C
:101D6C00DBB2202B53D1BB68002B02D0FB88002B9D
:101D7C0001D101234CE0FB6893F83830012B01D1E1
:101D8C00022345E0FB68012283F83820BA68FB681F
:101D9C001A62FB68FA889A84FB68FA88DA84FB6812
:101DAC000022DA63FB68212283F83920FB681B6B65
:101DBC00194ADA63FB681B6B184A1A64FB681B6BC5
:101DCC00174ADA64FB681B6B00221A6507F10803DB
:101DDC007B61FB68186B7B691968FB681B680433B3
:101DEC001A46FB88FEF74AFEFB681B686FF0400240
:101DFC001A60FB68002283F83820FB681B685A695C
:101E0C00FB681B6842F080025A61002300E0022349
:101E1C0018461837BD4680BD65210008B72100085B
:101E2C005722000880B586B000AFF860B960134641
:101E3C00FB80FB6893F83A30DBB2202B66D1BB6891
:101E4C00002B02D0FB88002B01D101235FE0FB6843
:101E5C0093F83830012B01D1022358E0FB680122A2
:101E6C0083F83820BA68FB689A62FB68FA889A850E
:101E7C00FB680022DA63FB68222283F83A20FB68B5
:101E8C005B6B254ADA63FB685B6B244A1A64FB685C
:101E9C005B6B234ADA64FB685B6B00221A6507F103
:101EAC0008037B61FB68586BFB681B68043319469D
:101EBC007B691A68FB88FEF7E1FD00233B61FB6838
:101ECC001B681B683B61FB681B685B683B613B697B
:101EDC00FB68002283F83820FB681B68DA68FB6813
:101EEC001B6842F48072DA60FB681B685A69FB68F5
:101EFC001B6842F001025A61FB681B685A69FB6857
:101F0C001B6842F040025A61002300E0022318468D
:101F1C001837BD4680BD00BFD32100083B22000806
:101F2C005722000880B588B000AF78607B681B68CA
:101F3C001B68FB617B681B68DB68BB617B681B688B
:101F4C005B697B6100233B610023FB60FB6903F051
:101F5C000F033B613B69002B0DD1FB6903F02003A0
:101F6C00002B08D0BB6903F02003002B03D078684A
:101F7C0000F06BFACCE03B69002B00F0AB807B6986
:101F8C0003F00103002B05D1BB6903F49073002B04
:101F9C0000F0A080FB6903F00103002B0AD0BB69A1
:101FAC0003F48073002B05D07B68DB6B43F00102DC
:101FBC007B68DA63FB6903F00403002B0AD07B69AE
:101FCC0003F00103002B05D07B68DB6B43F00202AE
:101FDC007B68DA63FB6903F00203002B0AD07B6990
:101FEC0003F00103002B05D07B68DB6B43F004028C
:101FFC007B68DA63FB6903F00803002B0AD07B696A
:10200C0003F00103002B05D07B68DB6B43F0080267
:10201C007B68DA637B68DB6B002B78D0FB6903F0A1
:10202C002003002B07D0BB6903F02003002B02D048
:10203C00786800F00AFA7B681B685B6903F0400360
:10204C00402B0CBF01230023DBB2FB607B68DB6BF6
:10205C0003F00803002B02D1FB68002B31D0786809
:10206C0000F053F97B681B685B6903F04003402B5D
:10207C0023D17B681B685A697B681B6822F040027D
:10208C005A617B685B6B002B13D07B685B6B224ABD
:10209C001A657B685B6B1846FEF750FD0346002BF8
:1020AC0016D07B685B6B1B6D7A68526B1046984739
:1020BC000EE0786800F046F80AE0786800F042F824
:1020CC0006E0786800F03EF87B680022DA631EE0D8
:1020DC0000BF1CE0FB6903F08003002B08D0BB6938
:1020EC0003F08003002B03D0786800F040F90FE078
:1020FC00FB6903F04003002B0AD0BB6903F04003DB
:10210C00002B05D0786800F088F900BF00E000BF14
:10211C002037BD4680BD00BF5323000880B483B078
:10212C0000AF786000BF0C37BD465DF8047B70478C
:10213C0080B483B000AF786000BF0C37BD465DF84B
:10214C00047B704780B483B000AF786000BF0C375D
:10215C00BD465DF8047B704780B584B000AF7860F5
:10216C007B689B6BFB607B681B681B6803F480734C
:10217C00002B13D1FB680022DA84FB681B685A69B8
:10218C00FB681B6822F080025A61FB681B68DA68E6
:10219C00FB681B6842F04002DA6002E0F86800F06D
:1021AC006FFF00BF1037BD4680BD80B584B000AF57
:1021BC0078607B689B6BFB60F868FFF7AFFF00BF34
:1021CC001037BD4680BD80B584B000AF78607B68A9
:1021DC009B6BFB607B681B681B6803F48073002B94
:1021EC001ED1FB680022DA85FB681B68DA68FB6885
:1021FC001B6822F48072DA60FB681B685A69FB6802
:10220C001B6822F001025A61FB681B685A69FB6863
:10221C001B6822F040025A61FB68202283F83A20A6
:10222C00F86800F03BFF00BF1037BD4680BD80B59D
:10223C0084B000AF78607B689B6BFB60F868FFF73D
:10224C0077FF00BF1037BD4680BD80B584B000AFAE
:10225C0078600023FB607B689B6BBB60BB681B6872
:10226C005B6903F08003802B0CBF01230023DBB2DE
:10227C00FB60BB6893F83930DBB2212B08D1FB68CB
:10228C00002B05D0BB680022DA84B86800F027F870
:10229C00BB681B685B6903F04003402B0CBF012338
:1022AC000023DBB2FB60BB6893F83A30DBB2222B25
:1022BC0008D1FB68002B05D0BB680022DA85B86812
:1022CC0000F023F8BB68DB6B43F01002BB68DA63E9
:1022DC00B868FFF737FF00BF1037BD4680BD80B42C
:1022EC0083B000AF78607B681B68DA687B681B681A
:1022FC0022F0C002DA607B68202283F8392000BF0C
:10230C000C37BD465DF8047B704780B483B000AFDA
:10231C0078607B681B68DA687B681B6822F49072B3
:10232C00DA607B681B685A697B681B6822F00102C3
:10233C005A617B68202283F83A2000BF0C37BD46D7
:10234C005DF8047B704780B584B000AF78607B6823
:10235C009B6BFB60FB680022DA85FB680022DA8449
:10236C00F868FFF7EFFE00BF1037BD4680BD80B4A4
:10237C0085B000AF78607B6893F83930DBB2212BE5
:10238C0044D17B689B68B3F5805F1AD17B681B6A6C
:10239C00FB60FB681B881A467B681B68C2F308024B
:1023AC005A607B681B69002B05D17B681B6A9A1CE1
:1023BC007B681A620EE07B681B6A5A1C7B681A6287
:1023CC0008E07B681B6A591C7A6811621A787B6872
:1023DC001B685A607B68DB8C9BB2013B9BB27A68B2
:1023EC001946D184002B0FD17B681B68DA687B6897
:1023FC001B6822F08002DA607B681B68DA687B68F5
:10240C001B6842F04002DA60002300E00223184609
:10241C001437BD465DF8047B704780B582B000AFC1
:10242C0078607B681B68DA687B681B6822F0400266
:10243C00DA607B68202283F83920786800F020FE6F
:10244C00002318460837BD4680BD80B584B000AF68
:10245C0078607B6893F83A30DBB2222B71D17B68C1
:10246C009B68B3F5805F23D17B689B6AFB607B68BC
:10247C001B69002B0ED17B681B685B689BB2C3F396
:10248C0008039AB2FB681A807B689B6A9A1C7B686B
:10249C009A6229E07B681B685B689BB2DBB29AB2DC
:1024AC00FB681A807B689B6A5A1C7B689A621BE0EB
:1024BC007B681B69002B0AD17B681B6858687B689A
:1024CC009B6A591C7A689162C2B21A700CE07B68E4
:1024DC001B685B68DAB27B689B6A581C79688862F7
:1024EC0002F07F02D2B21A707B68DB8D9BB2013B8B
:1024FC009BB27A681946D185002B20D17B681B686A
:10250C00DA687B681B6822F02002DA607B681B6843
:10251C00DA687B681B6822F48072DA607B681B685F
:10252C005A697B681B6822F001025A617B68202281
:10253C0083F83A20786800F0B1FD002302E0002314
:10254C0000E0022318461037BD4680BDB0B584B0FC
:10255C0000AF78607B681B681B6923F440517B6873
:10256C00DA687B681B680A431A617B689A687B6827
:10257C001B691A437B685B691A437B68DB691343ED
:10258C00FB607B681B68DB6823F4164323F00C03A9
:10259C007A681268F9680B43D3607B681B685B69C7
:1025AC0023F440717B689A697B681B680A435A6103
:1025BC007B68DB69B3F5004F40F0E4807B681B68F7
:1025CC00AB4A934204D07B681B68AA4A93426CD1F5
:1025DC00FFF75AFB024613469B0013449A001A4419
:1025EC007B685B685B00B2FBF3F3A34AA2FB03239B
:1025FC005B091C01FFF748FB024613469B00134482
:10260C009A001A447B685B685B00B2FBF3F5FFF73A
:10261C003BFB024613469B0013449A001A447B680A
:10262C005B685B00B2FBF3F3934AA2FB03235B09E9
:10263C00642202FB03F3EB1ADB0032338E4AA2FB5B
:10264C0003235B095B0003F4F8731C44FFF71CFBCA
:10265C00024613469B0013449A001A447B685B683D
:10266C005B00B2FBF3F5FFF70FFB024613469B0032
:10267C0013449A001A447B685B685B00B2FBF3F36B
:10268C007D4AA2FB03235B09642202FB03F3EB1AD2
:10269C00DB003233784AA2FB03235B0903F0070209
:1026AC007B681B6822449A6054E1FFF7D9FA024612
:1026BC0013469B0013449A001A447B685B685B00CA
:1026CC00B2FBF3F36C4AA2FB03235B091C01FFF77B
:1026DC00C7FA024613469B0013449A001A447B68BF
:1026EC005B685B00B2FBF3F5FFF7BAFA02461346E0
:1026FC009B0013449A001A447B685B685B00B2FB36
:10270C00F3F35D4AA2FB03235B09642202FB03F390
:10271C00EB1ADB003233584AA2FB03235B095B0044
:10272C0003F4F8731C44FFF79BFA024613469B0014
:10273C0013449A001A447B685B685B00B2FBF3F5A8
:10274C00FFF78EFA024613469B0013449A001A4474
:10275C007B685B685B00B2FBF3F3474AA2FB032385
:10276C005B09642202FB03F3EB1ADB003233424AAF
:10277C00A2FB03235B0903F007027B681B6822445E
:10278C009A60E7E07B681B68394A934204D07B6807
:10279C001B68384A934271D1FFF776FA024613460A
:1027AC009B0013449A001A447B685B689B00B2FB45
:1027BC00F3F3314AA2FB03235B091C01FFF764FA14
:1027CC00024613469B0013449A001A447B685B68CC
:1027DC009B00B2FBF3F5FFF757FA024613469B003A
:1027EC0013449A001A447B685B689B00B2FBF3F3BA
:1027FC00214AA2FB03235B09642202FB03F3EB1ABD
:10280C001B0132331C4AA2FB03235B0903F0F003C8
:10281C001C44FFF739FA024613469B0013449A00F6
:10282C001A447B685B689B00B2FBF3F5FFF72CFA4C
:10283C00024613469B0013449A001A447B685B685B
:10284C009B00B2FBF3F30C4AA2FB03235B0964224B
:10285C0002FB03F3EB1A1B013233074AA2FB0323DF
:10286C005B0903F00F027B681B6822449A6071E0DD
:10287C0000100140001401401F85EB51FFF7F0F9E7
:10288C00024613469B0013449A001A447B685B680B
:10289C009B00B2FBF3F3314AA2FB03235B091C013F
:1028AC00FFF7DEF9024613469B0013449A001A44C4
:1028BC007B685B689B00B2FBF3F5FFF7D1F902462E
:1028CC0013469B0013449A001A447B685B689B0078
:1028DC00B2FBF3F3214AA2FB03235B09642202FB44
:1028EC0003F3EB1A1B0132331C4AA2FB03235B09D3
:1028FC0003F0F0031C44FFF7B3F9024613469B00A8
:10290C0013449A001A447B685B689B00B2FBF3F596
:10291C00FFF7A6F9024613469B0013449A001A448B
:10292C007B685B689B00B2FBF3F30C4AA2FB0323AE
:10293C005B09642202FB03F3EB1A1B013233074AD7
:10294C00A2FB03235B0903F00F027B681B68224484
:10295C009A60FFE700BF1037BD46B0BD1F85EB5135
:10296C0080B594B000AF07F1200330220021184647
:10297C0000F012FC07F10C0300221A605A609A60F6
:10298C00DA601A610023BB602C4B1B6C2B4A43F0A2
:10299C0080531364294B1B6C03F08053BB60BB68E2
:1029AC0000237B60264B1B68254A43F4404313608D
:1029BC00234B1B6803F440437B607B6801233B6221
:1029CC004FF480337B620223BB634FF48003FB63C1
:1029DC0008233B644FF4B4737B640223BB6404236D
:1029EC00FB6407F120031846FEF72EFD0346002B6F
:1029FC0001D000F0A1F8FEF7D7FC0346002B01D064
:102A0C0000F09AF80F23FB6002233B6100237B61EB
:102A1C004FF4A053BB614FF48053FB6107F10C03DF
:102A2C0005211846FEF752FF0346002B01D000F09B
:102A3C0083F800BF5037BD4680BD00BF0038024050
:102A4C000070004080B500AF114B124A1A60104B59
:102A5C004FF4E1325A600E4B00229A600C4B00226C
:102A6C00DA600B4B00221A61094B0C225A61084B9D
:102A7C0000229A61064B0022DA610548FFF718F92B
:102A8C000346002B01D000F057F800BF80BD00BFFB
:102A9C00E00400200048004080B582B000AF002365
:102AAC007B60104B1B6B0F4A43F4001313630D4BED
:102ABC001B6B03F400137B607B68002200210C204D
:102ACC00FDF7F7FE0C20FDF710FF002200210E2071
:102ADC00FDF7EFFE0E20FDF708FF00BF0837BD46DF
:102AEC0080BD00BF0038024080B483B000AF00232B
:102AFC007B60104B1B6B0F4A43F0800313630D4B31
:102B0C001B6B03F080037B607B6800233B60094BED
:102B1C001B6B084A43F008031363064B1B6B03F053
:102B2C0008033B603B6800BF0C37BD465DF8047B77
:102B3C00704700BF0038024080B400AF00BFBD46F4
:102B4C005DF8047B7047000080B483B000AF0023B5
:102B5C007B60104B5B6C0F4A43F4804353640D4B0A
:102B6C005B6C03F480437B607B6800233B60094B08
:102B7C001B6C084A43F080531364064B1B6C03F028
:102B8C0080533B603B6800BF0C37BD465DF8047B4F
:102B9C00704700BF0038024080B58AB000AF786043
:102BAC0007F1140300221A605A609A60DA601A6105
:102BBC007B681B684D4A934240F0948000233B6134
:102BCC004B4B1B6C4A4A43F480231364484B1B6CDD
:102BDC0003F480233B613B690023FB60444B1B6B7C
:102BEC00434A43F008031363414B1B6B03F0080388
:102BFC00FB60FB684FF440737B610223BB610123D4
:102C0C00FB6103233B6207237B6207F11403194624
:102C1C003848FEF71FFA384B384A1A60364B4FF0DB
:102C2C0000625A60344B40229A60334B0022DA60C7
:102C3C00314B4FF480621A612F4B00225A612E4B9C
:102C4C0000229A612C4B0022DA612B4B4FF440325C
:102C5C001A62294B00225A622748FDF761FE03468F
:102C6C00002B01D0FFF768FF7B68234A1A63224AC6
:102C7C007B689363224B234A1A60214B4FF000620E
:102C8C005A601F4B00229A601D4B0022DA601C4BCD
:102C9C004FF480621A611A4B00225A61184B0022C1
:102CAC009A61174B4FF48072DA61154B4FF4403236
:102CBC001A62134B00225A621148FDF731FE03468B
:102CCC00002B01D0FFF738FF7B680D4A5A630C4A82
:102CDC007B689363002200212720FDF7EAFD272063
:102CEC00FDF703FE00BF2837BD4680BD00480040FD
:102CFC0000380240000C02402005002058600240C1
:102D0C00800400202860024080B400AF00BFBD46A4
:102D1C005DF8047B704780B400AFFEE780B400AF71
:102D2C00FEE780B400AFFEE780B400AFFEE780B4EE
:102D3C0000AF00BFBD465DF8047B704780B400AFA8
:102D4C0000BFBD465DF8047B704780B400AF00BF88
:102D5C00BD465DF8047B704780B500AFFDF7AEFC57
:102D6C0000BF80BD80B500AF0248FDF709FF00BF72
:102D7C0080BD00BF8004002080B500AF0248FDF785
:102D8C00FFFE00BF80BD00BF2005002080B500AF56
:102D9C000248FFF7C7F800BF80BD00BFE004002069
:102DAC0080B400AF164BD3F88830154A43F4700347
:102DBC00C2F88830134B1B68124A43F001031360AE
:102DCC00104B00229A600F4B1B680E4A23F0847341
:102DDC0023F4803313600B4B0B4A5A60094B1B686E
:102DEC00084A23F480231360064B0022DA60044B5C
:102DFC004FF000629A6000BFBD465DF8047B7047DF
:102E0C0000ED00E0003802401030002480B483B0A4
:102E1C0000AF78607B681B685B6B1B685B685B4210
:102E2C0003F0070318460C37BD465DF8047B70476A
:102E3C0080B483B000AF786039607B683A681A6000
:102E4C007B680022DA607B6800229A617B68002232
:102E5C00DA617B68002283F820207B6818460C37E7
:102E6C00BD465DF8047B704780B582B000AF7860DA
:102E7C00786800F004F800BF0837BD4680BD80B507
:102E8C0082B000AF78607B6818687B6804330822D6
:102E9C001946FEF7C7FF00BF0837BD4680BD90B589
:102EAC0085B000AF78604FF0FF33FB607B68DC6867
:102EBC007868FFF7ABFF03469C4214BF0123002345
:102ECC00DBB2002B0ED07B68DB68591C7A68D160B2
:102EDC007A6813441B79FB607B68DB6803F007029C
:102EEC007B68DA60FB6818461437BD4690BD80B528
:102EFC0084B000AF78607B681B6893F83930DBB224
:102F0C00202B09D17B6893F8203083F00103DBB2CE
:102F1C00002B01D0012300E00023002B36D07B686E
:102F2C00012283F820207B689A697B68DB699A42CE
:102F3C0028D07B68DA697B689B699A4208D27B68E7
:102F4C009B699AB27B68DB699BB2D31A9BB205E092
:102F5C007B68DB699BB2C3F108039BB2FB817B6886
:102F6C0018687B68DB6910337A681344FA89194650
:102F7C00FEF7ECFE7B68DA69FB89134403F0070269
:102F8C007B68DA617B68002283F8202000BF103751
:102F9C00BD4680BD80B586B000AFF860B9607A6080
:102FAC007B689BB27B827B8A082B03D807F11203C8
:102FBC001B8800E008237B827B8A1A46FB689B698E
:102FCC00C3F10803934228BF13467B61FB689B69DE
:102FDC001033FA6813447A69B9681846FDF782FA17
:102FEC00FB689B697A8A134403F00702FB689A61B9
:102FFC007B8A1A467B6993420CD0FB6803F1100064
:10300C007B69BA68D1187B8A1A467B69D31A1A462F
:10301C00FDF768FAF868FFF76AFF00BF1837BD467E
:10302C0080BD80B584B000AF78607868FFF737FF5B
:10303C000346FB60FB68B3F1FF3F06D007F10C03BE
:10304C00012219467868FFF7A5FF00BF1037BD466F
:10305C0080BD000080B500AFFDF7DEFAFFF780FC05
:10306C00FFF742FDFFF718FDFFF7ECFC0348FFF7F5
:10307C00FBFE0248FFF7D5FFFBE700BF580400201A
:10308C0080B582B000AF78600348FFF730FF00BF17
:10309C000837BD4680BD00BF5804002080B582B003
:1030AC0000AF78600348FFF7EAFE00BF0837BD4663
:1030BC0080BD00BF5804002080B582B000AF78609E
:1030CC0039607B68012B08D13B684FF6FF72934245
:1030DC0003D104490448FFF7ABFE00BF0837BD46D7
:1030EC0080BD00BFE00400205804002080B500AF74
:1030FC004FF6FF710120FFF7DFFF80BDDFF834D002
:10310C00002103E00C4B5B58435004310B480C4B33
:10311C0042189A42F6D30B4A02E0002342F8043BD1
:10312C00094B9A42F9D3FFF73BFE00F011F8FFF779
:10313C0091FF7047000003207C3300080000002042
:10314C003C0400203C040020A4050020FEE7000005
:10315C0070B50D4E0D4D761BB61006D00024013403
:10316C0055F8043B9847A642F9D1094E094D761BF8
:10317C0000F0D4F8B61006D00024013455F8043B06
:10318C009847A642F9D170BD6C3300086C33000827
:10319C00783300086C330008F0B4860746D0541E10
:1031AC00002A3CD0CAB2034602E014F1FF3436D3F5
:1031BC0003F8012B9D07F8D1032C29D9CDB245EA90
:1031CC0005250F2C45EA054533D9A4F1100636091F
:1031DC0003F1200707EB061703F1100242E904552F
:1031EC0042E902551032BA42F8D1721C14F00C0F9D
:1031FC0003EB021204F00F0613D0331F23F003036A
:10320C000433134442F8045B9342FBD106F00304ED
:10321C002CB1C9B21C4403F8011B9C42FBD1F0BC7D
:10322C00704734461346002CF3D1F8E71446034696
:10323C00C2E71A462646E0E7024B13B1024800F0FB
:10324C0005B87047000000006532000800230146F5
:10325C001A46184600F01EB838B50A4C0A4D641BC5
:10326C00A4100AD004F18043013B05EB8305013C1B
:10327C0055F804399847002CF9D1BDE8384000F0D6
:10328C0053B800BF7C33000878330008704700BF88
:10329C00704700BF2DE9F0411E4C05462068904652
:1032AC001F460E46FFF7F2FF1B4B1A68D2F8483147
:1032BC0033B35A6820681F2A27DC4DB9911C0132A0
:1032CC005A6043F82160FFF7E3FF0020BDE8F0816E
:1032DC0003EB82010124C1F8888004FA02FED3F8C2
:1032EC008841022D44EA0E0CC3F888C1C1F808715C
:1032FC00E4D1D3F88C114EEA0104C3F88C41DDE71C
:10330C0002F5A673C2F84831D3E7FFF7C1FF4FF0BF
:10331C00FF30DBE73804002060330008F8B500BF4D
:10332C00F8BC08BC9E467047F8B500BFF8BC08BC9A
:04333C009E467047F2
:103340000006101600061016000000000000000025
:10335000010203040607080900000000010203043B
:043360001000002039
:08336400B8CEFF7F010000005C
:0C336C0045320008D1010008F9300008CB
:04337800AD0100089B
:10337C0010000000010000000024F4000000000018
:10338C0000000000FC02002064030020CC0300209D
:10339C000000000000000000000000000000000021
:1033AC000000000000000000000000000000000011
:1033BC000000000000000000000000000000000001
:1033CC0000000000000000000000000000000000F1
:1033DC0000000000000000000000000000000000E1
:1033EC0000000000000000000000000000000000D1
:1033FC0000000000000000000000000000000000C1
:10340C0000000000000000000000000000000000B0
:10341C0000000000000000000000000000000000A0
:10342C00000000000000000001000000000000008F
:10343C000E33CDAB34126DE6ECDE05000B00000054
:10344C000000000000000000000000000000000070
:10345C000000000000000000000000000000000060
:10346C000000000000000000000000000000000050
:10347C000000000000000000000000000000000040
:0C37AC000000000000000000800500206C
:0400000508003109B5
:00000001FF
